{
  "_format": "hh-sol-artifact-1",
  "contractName": "BankingSystem",
  "sourceName": "contracts/banking_26106_contract.sol",
  "abi": [
    {
      "inputs": [],
      "stateMutability": "nonpayable",
      "type": "constructor"
    },
    {
      "inputs": [],
      "name": "AmountInBank",
      "outputs": [
        {
          "internalType": "uint256",
          "name": "",
          "type": "uint256"
        }
      ],
      "stateMutability": "view",
      "type": "function"
    },
    {
      "inputs": [],
      "name": "DepositInterestRate",
      "outputs": [
        {
          "internalType": "uint256",
          "name": "",
          "type": "uint256"
        }
      ],
      "stateMutability": "view",
      "type": "function"
    },
    {
      "inputs": [],
      "name": "InquireLoan",
      "outputs": [
        {
          "internalType": "uint256",
          "name": "principal",
          "type": "uint256"
        },
        {
          "internalType": "uint256",
          "name": "interest",
          "type": "uint256"
        },
        {
          "internalType": "uint256",
          "name": "total",
          "type": "uint256"
        }
      ],
      "stateMutability": "view",
      "type": "function"
    },
    {
      "inputs": [],
      "name": "LoanFunds",
      "outputs": [
        {
          "internalType": "uint256",
          "name": "",
          "type": "uint256"
        }
      ],
      "stateMutability": "view",
      "type": "function"
    },
    {
      "inputs": [],
      "name": "LoanInterestRate",
      "outputs": [
        {
          "internalType": "uint256",
          "name": "",
          "type": "uint256"
        }
      ],
      "stateMutability": "view",
      "type": "function"
    },
    {
      "inputs": [],
      "name": "OperationalFunds",
      "outputs": [
        {
          "internalType": "uint256",
          "name": "",
          "type": "uint256"
        }
      ],
      "stateMutability": "view",
      "type": "function"
    },
    {
      "inputs": [
        {
          "internalType": "uint256",
          "name": "loanAmount",
          "type": "uint256"
        }
      ],
      "name": "TakeLoan",
      "outputs": [],
      "stateMutability": "nonpayable",
      "type": "function"
    },
    {
      "inputs": [
        {
          "internalType": "address",
          "name": "recipient",
          "type": "address"
        },
        {
          "internalType": "uint256",
          "name": "transferAmount",
          "type": "uint256"
        }
      ],
      "name": "TransferEth",
      "outputs": [],
      "stateMutability": "nonpayable",
      "type": "function"
    },
    {
      "inputs": [],
      "name": "addDepositInterest",
      "outputs": [],
      "stateMutability": "nonpayable",
      "type": "function"
    },
    {
      "inputs": [],
      "name": "addLoanInterest",
      "outputs": [],
      "stateMutability": "nonpayable",
      "type": "function"
    },
    {
      "inputs": [
        {
          "internalType": "uint256",
          "name": "",
          "type": "uint256"
        }
      ],
      "name": "addressList",
      "outputs": [
        {
          "internalType": "address",
          "name": "",
          "type": "address"
        }
      ],
      "stateMutability": "view",
      "type": "function"
    },
    {
      "inputs": [],
      "name": "closeAccount",
      "outputs": [],
      "stateMutability": "nonpayable",
      "type": "function"
    },
    {
      "inputs": [],
      "name": "depositAmount",
      "outputs": [],
      "stateMutability": "payable",
      "type": "function"
    },
    {
      "inputs": [],
      "name": "depositOperationalFunds",
      "outputs": [],
      "stateMutability": "payable",
      "type": "function"
    },
    {
      "inputs": [],
      "name": "depositTopUp",
      "outputs": [],
      "stateMutability": "payable",
      "type": "function"
    },
    {
      "inputs": [],
      "name": "getDetails",
      "outputs": [
        {
          "internalType": "uint256",
          "name": "balance",
          "type": "uint256"
        },
        {
          "internalType": "string",
          "name": "first_name",
          "type": "string"
        },
        {
          "internalType": "string",
          "name": "last_name",
          "type": "string"
        },
        {
          "internalType": "uint256",
          "name": "principal",
          "type": "uint256"
        },
        {
          "internalType": "uint256",
          "name": "interest",
          "type": "uint256"
        }
      ],
      "stateMutability": "view",
      "type": "function"
    },
    {
      "inputs": [
        {
          "internalType": "string",
          "name": "firstName",
          "type": "string"
        },
        {
          "internalType": "string",
          "name": "lastName",
          "type": "string"
        }
      ],
      "name": "openAccount",
      "outputs": [],
      "stateMutability": "nonpayable",
      "type": "function"
    },
    {
      "inputs": [],
      "name": "returnLoan",
      "outputs": [],
      "stateMutability": "payable",
      "type": "function"
    },
    {
      "inputs": [
        {
          "internalType": "uint256",
          "name": "dep_interest_rate",
          "type": "uint256"
        },
        {
          "internalType": "uint256",
          "name": "loan_interest_rate",
          "type": "uint256"
        }
      ],
      "name": "setInterestRates",
      "outputs": [],
      "stateMutability": "nonpayable",
      "type": "function"
    },
    {
      "inputs": [
        {
          "internalType": "address",
          "name": "",
          "type": "address"
        }
      ],
      "name": "userAccounts",
      "outputs": [
        {
          "internalType": "string",
          "name": "firstName",
          "type": "string"
        },
        {
          "internalType": "string",
          "name": "lastName",
          "type": "string"
        },
        {
          "internalType": "uint256",
          "name": "principalLoan",
          "type": "uint256"
        },
        {
          "internalType": "uint256",
          "name": "interestLoan",
          "type": "uint256"
        },
        {
          "internalType": "uint256",
          "name": "balance",
          "type": "uint256"
        },
        {
          "internalType": "bool",
          "name": "exists",
          "type": "bool"
        }
      ],
      "stateMutability": "view",
      "type": "function"
    },
    {
      "inputs": [
        {
          "internalType": "uint256",
          "name": "withdrawalAmount",
          "type": "uint256"
        }
      ],
      "name": "withDraw",
      "outputs": [],
      "stateMutability": "nonpayable",
      "type": "function"
    }
  ],
  "bytecode": "0x6080604052348015600f57600080fd5b50336000806101000a81548173ffffffffffffffffffffffffffffffffffffffff021916908373ffffffffffffffffffffffffffffffffffffffff16021790555060006002819055506000600381905550600060018190555060006004819055506138228061007f6000396000f3fe60806040526004361061012a5760003560e01c806372dde3fe116100ab578063b91fa0ef1161006f578063b91fa0ef14610343578063d9b668901461035a578063e09bb16814610383578063e46be7431461039a578063f9f65de5146103c3578063fbbf93a0146103ec5761012a565b806372dde3fe146102795780639e759d6f14610283578063a73f0072146102b0578063a823eabe146102db578063b810fb43146103065761012a565b8063419759f5116100f2578063419759f5146101c2578063521684aa146101cc5780635251d91c146101f5578063617d3830146102375780636dd22fc6146102625761012a565b806303ab34181461012f5780630bfde8b01461013957806314174f3314610164578063371a80cb1461018d5780633ac4cd5314610197575b600080fd5b61013761041b565b005b34801561014557600080fd5b5061014e6104c4565b60405161015b91906124a4565b60405180910390f35b34801561017057600080fd5b5061018b600480360381019061018691906124ff565b6104ce565b005b610195610779565b005b3480156101a357600080fd5b506101ac610822565b6040516101b991906124a4565b60405180910390f35b6101ca61082c565b005b3480156101d857600080fd5b506101f360048036038101906101ee9190612672565b610961565b005b34801561020157600080fd5b5061021c60048036038101906102179190612748565b610bc5565b60405161022e9695949392919061280f565b60405180910390f35b34801561024357600080fd5b5061024c610d1e565b60405161025991906124a4565b60405180910390f35b34801561026e57600080fd5b50610277610d28565b005b61028161102d565b005b34801561028f57600080fd5b50610298611452565b6040516102a79392919061287e565b60405180910390f35b3480156102bc57600080fd5b506102c5611553565b6040516102d291906124a4565b60405180910390f35b3480156102e757600080fd5b506102f061155d565b6040516102fd91906124a4565b60405180910390f35b34801561031257600080fd5b5061032d600480360381019061032891906124ff565b611565565b60405161033a91906128c4565b60405180910390f35b34801561034f57600080fd5b506103586115a4565b005b34801561036657600080fd5b50610381600480360381019061037c91906128df565b6117f4565b005b34801561038f57600080fd5b50610398611adb565b005b3480156103a657600080fd5b506103c160048036038101906103bc91906124ff565b611e5e565b005b3480156103cf57600080fd5b506103ea60048036038101906103e5919061291f565b612173565b005b3480156103f857600080fd5b50610401612213565b60405161041295949392919061295f565b60405180910390f35b60008054906101000a900473ffffffffffffffffffffffffffffffffffffffff1673ffffffffffffffffffffffffffffffffffffffff163273ffffffffffffffffffffffffffffffffffffffff16146104a9576040517f08c379a00000000000000000000000000000000000000000000000000000000081526004016104a090612a32565b60405180910390fd5b34600160008282546104bb9190612a81565b92505081905550565b6000600454905090565b60008054906101000a900473ffffffffffffffffffffffffffffffffffffffff1673ffffffffffffffffffffffffffffffffffffffff163273ffffffffffffffffffffffffffffffffffffffff160361055c576040517f08c379a000000000000000000000000000000000000000000000000000000000815260040161055390612b01565b60405180910390fd5b600660003273ffffffffffffffffffffffffffffffffffffffff1673ffffffffffffffffffffffffffffffffffffffff16815260200190815260200160002060050160009054906101000a900460ff166105eb576040517f08c379a00000000000000000000000000000000000000000000000000000000081526004016105e290612b6d565b60405180910390fd5b80600660003273ffffffffffffffffffffffffffffffffffffffff1673ffffffffffffffffffffffffffffffffffffffff168152602001908152602001600020600401541015610670576040517f08c379a000000000000000000000000000000000000000000000000000000000815260040161066790612bd9565b60405180910390fd5b80600660003273ffffffffffffffffffffffffffffffffffffffff1673ffffffffffffffffffffffffffffffffffffffff16815260200190815260200160002060040160008282546106c29190612bf9565b9250508190555060003273ffffffffffffffffffffffffffffffffffffffff16826040516106ef90612c5e565b60006040518083038185875af1925050503d806000811461072c576040519150601f19603f3d011682016040523d82523d6000602084013e610731565b606091505b5050905080610775576040517f08c379a000000000000000000000000000000000000000000000000000000000815260040161076c90612cbf565b60405180910390fd5b5050565b60008054906101000a900473ffffffffffffffffffffffffffffffffffffffff1673ffffffffffffffffffffffffffffffffffffffff163273ffffffffffffffffffffffffffffffffffffffff1614610807576040517f08c379a00000000000000000000000000000000000000000000000000000000081526004016107fe90612a32565b60405180910390fd5b34600460008282546108199190612a81565b92505081905550565b6000600254905090565b600660003273ffffffffffffffffffffffffffffffffffffffff1673ffffffffffffffffffffffffffffffffffffffff16815260200190815260200160002060050160009054906101000a900460ff166108bb576040517f08c379a00000000000000000000000000000000000000000000000000000000081526004016108b290612b6d565b60405180910390fd5b670de0b6b3a7640000341015610906576040517f08c379a00000000000000000000000000000000000000000000000000000000081526004016108fd90612d2b565b60405180910390fd5b34600660003273ffffffffffffffffffffffffffffffffffffffff1673ffffffffffffffffffffffffffffffffffffffff16815260200190815260200160002060040160008282546109589190612a81565b92505081905550565b60008054906101000a900473ffffffffffffffffffffffffffffffffffffffff1673ffffffffffffffffffffffffffffffffffffffff163273ffffffffffffffffffffffffffffffffffffffff16036109ef576040517f08c379a00000000000000000000000000000000000000000000000000000000081526004016109e690612b01565b60405180910390fd5b600660003273ffffffffffffffffffffffffffffffffffffffff1673ffffffffffffffffffffffffffffffffffffffff16815260200190815260200160002060050160009054906101000a900460ff1615610a7f576040517f08c379a0000000000000000000000000000000000000000000000000000000008152600401610a7690612d97565b60405180910390fd5b6040518060c0016040528083815260200182815260200160008152602001600081526020016000815260200160011515815250600660003273ffffffffffffffffffffffffffffffffffffffff1673ffffffffffffffffffffffffffffffffffffffff1681526020019081526020016000206000820151816000019081610b069190612fc3565b506020820151816001019081610b1c9190612fc3565b5060408201518160020155606082015181600301556080820151816004015560a08201518160050160006101000a81548160ff0219169083151502179055509050506005329080600181540180825580915050600190039060005260206000200160009091909190916101000a81548173ffffffffffffffffffffffffffffffffffffffff021916908373ffffffffffffffffffffffffffffffffffffffff1602179055505050565b6006602052806000526040600020600091509050806000018054610be890612de6565b80601f0160208091040260200160405190810160405280929190818152602001828054610c1490612de6565b8015610c615780601f10610c3657610100808354040283529160200191610c61565b820191906000526020600020905b815481529060010190602001808311610c4457829003601f168201915b505050505090806001018054610c7690612de6565b80601f0160208091040260200160405190810160405280929190818152602001828054610ca290612de6565b8015610cef5780601f10610cc457610100808354040283529160200191610cef565b820191906000526020600020905b815481529060010190602001808311610cd257829003601f168201915b5050505050908060020154908060030154908060040154908060050160009054906101000a900460ff16905086565b6000600154905090565b60008054906101000a900473ffffffffffffffffffffffffffffffffffffffff1673ffffffffffffffffffffffffffffffffffffffff163273ffffffffffffffffffffffffffffffffffffffff1603610db6576040517f08c379a0000000000000000000000000000000000000000000000000000000008152600401610dad90613107565b60405180910390fd5b600660003273ffffffffffffffffffffffffffffffffffffffff1673ffffffffffffffffffffffffffffffffffffffff16815260200190815260200160002060050160009054906101000a900460ff16610e45576040517f08c379a0000000000000000000000000000000000000000000000000000000008152600401610e3c90613173565b60405180910390fd5b6000600660003273ffffffffffffffffffffffffffffffffffffffff1673ffffffffffffffffffffffffffffffffffffffff16815260200190815260200160002060020154148015610ed957506000600660003273ffffffffffffffffffffffffffffffffffffffff1673ffffffffffffffffffffffffffffffffffffffff16815260200190815260200160002060030154145b610f18576040517f08c379a0000000000000000000000000000000000000000000000000000000008152600401610f0f90613205565b60405180910390fd5b6000600660003273ffffffffffffffffffffffffffffffffffffffff1673ffffffffffffffffffffffffffffffffffffffff1681526020019081526020016000206004015414610f9d576040517f08c379a0000000000000000000000000000000000000000000000000000000008152600401610f9490613297565b60405180910390fd5b600660003273ffffffffffffffffffffffffffffffffffffffff1673ffffffffffffffffffffffffffffffffffffffff16815260200190815260200160002060008082016000610fed919061242e565b600182016000610ffd919061242e565b6002820160009055600382016000905560048201600090556005820160006101000a81549060ff02191690555050565b600660003273ffffffffffffffffffffffffffffffffffffffff1673ffffffffffffffffffffffffffffffffffffffff16815260200190815260200160002060050160009054906101000a900460ff166110bc576040517f08c379a00000000000000000000000000000000000000000000000000000000081526004016110b390612b6d565b60405180910390fd5b6000600660003273ffffffffffffffffffffffffffffffffffffffff1673ffffffffffffffffffffffffffffffffffffffff16815260200190815260200160002060020154118061114f57506000600660003273ffffffffffffffffffffffffffffffffffffffff1673ffffffffffffffffffffffffffffffffffffffff16815260200190815260200160002060030154115b61118e576040517f08c379a000000000000000000000000000000000000000000000000000000000815260040161118590613303565b60405180910390fd5b600660003273ffffffffffffffffffffffffffffffffffffffff1673ffffffffffffffffffffffffffffffffffffffff16815260200190815260200160002060030154600660003273ffffffffffffffffffffffffffffffffffffffff1673ffffffffffffffffffffffffffffffffffffffff1681526020019081526020016000206002015461121e9190612a81565b341115611260576040517f08c379a00000000000000000000000000000000000000000000000000000000081526004016112579061336f565b60405180910390fd5b6000349050600660003273ffffffffffffffffffffffffffffffffffffffff1673ffffffffffffffffffffffffffffffffffffffff1681526020019081526020016000206003015481116113255780600660003273ffffffffffffffffffffffffffffffffffffffff1673ffffffffffffffffffffffffffffffffffffffff16815260200190815260200160002060030160008282546113009190612bf9565b9250508190555080600460008282546113199190612a81565b9250508190555061144f565b6000600660003273ffffffffffffffffffffffffffffffffffffffff1673ffffffffffffffffffffffffffffffffffffffff168152602001908152602001600020600301549050806004600082825461137e9190612a81565b9250508190555080826113919190612bf9565b91506000600660003273ffffffffffffffffffffffffffffffffffffffff1673ffffffffffffffffffffffffffffffffffffffff1681526020019081526020016000206003018190555081600660003273ffffffffffffffffffffffffffffffffffffffff1673ffffffffffffffffffffffffffffffffffffffff168152602001908152602001600020600201600082825461142d9190612bf9565b9250508190555081600160008282546114469190612a81565b92505081905550505b50565b6000806000600660003273ffffffffffffffffffffffffffffffffffffffff1673ffffffffffffffffffffffffffffffffffffffff16815260200190815260200160002060050160009054906101000a900460ff166114e6576040517f08c379a00000000000000000000000000000000000000000000000000000000081526004016114dd90612b6d565b60405180910390fd5b6000600660003273ffffffffffffffffffffffffffffffffffffffff1673ffffffffffffffffffffffffffffffffffffffff168152602001908152602001600020905080600201548160030154826003015483600201546115479190612a81565b93509350935050909192565b6000600354905090565b600047905090565b6005818154811061157557600080fd5b906000526020600020016000915054906101000a900473ffffffffffffffffffffffffffffffffffffffff1681565b60008054906101000a900473ffffffffffffffffffffffffffffffffffffffff1673ffffffffffffffffffffffffffffffffffffffff163273ffffffffffffffffffffffffffffffffffffffff1614611632576040517f08c379a000000000000000000000000000000000000000000000000000000000815260040161162990613401565b60405180910390fd5b60005b6005805490508110156117f15760006005828154811061165857611657613421565b5b9060005260206000200160009054906101000a900473ffffffffffffffffffffffffffffffffffffffff169050600660008273ffffffffffffffffffffffffffffffffffffffff1673ffffffffffffffffffffffffffffffffffffffff16815260200190815260200160002060050160009054906101000a900460ff16801561172357506000600660008373ffffffffffffffffffffffffffffffffffffffff1673ffffffffffffffffffffffffffffffffffffffff16815260200190815260200160002060020154115b156117e35760006064600354600660008573ffffffffffffffffffffffffffffffffffffffff1673ffffffffffffffffffffffffffffffffffffffff1681526020019081526020016000206002015461177c9190613450565b61178691906134c1565b905080600660008473ffffffffffffffffffffffffffffffffffffffff1673ffffffffffffffffffffffffffffffffffffffff16815260200190815260200160002060030160008282546117da9190612a81565b92505081905550505b508080600101915050611635565b50565b60008054906101000a900473ffffffffffffffffffffffffffffffffffffffff1673ffffffffffffffffffffffffffffffffffffffff163273ffffffffffffffffffffffffffffffffffffffff1603611882576040517f08c379a000000000000000000000000000000000000000000000000000000000815260040161187990612b01565b60405180910390fd5b600660003273ffffffffffffffffffffffffffffffffffffffff1673ffffffffffffffffffffffffffffffffffffffff16815260200190815260200160002060050160009054906101000a900460ff16611911576040517f08c379a000000000000000000000000000000000000000000000000000000000815260040161190890612b6d565b60405180910390fd5b600660008373ffffffffffffffffffffffffffffffffffffffff1673ffffffffffffffffffffffffffffffffffffffff16815260200190815260200160002060050160009054906101000a900460ff166119a0576040517f08c379a00000000000000000000000000000000000000000000000000000000081526004016119979061353e565b60405180910390fd5b80600660003273ffffffffffffffffffffffffffffffffffffffff1673ffffffffffffffffffffffffffffffffffffffff168152602001908152602001600020600401541015611a25576040517f08c379a0000000000000000000000000000000000000000000000000000000008152600401611a1c90612bd9565b60405180910390fd5b80600660003273ffffffffffffffffffffffffffffffffffffffff1673ffffffffffffffffffffffffffffffffffffffff1681526020019081526020016000206004016000828254611a779190612bf9565b9250508190555080600660008473ffffffffffffffffffffffffffffffffffffffff1673ffffffffffffffffffffffffffffffffffffffff1681526020019081526020016000206004016000828254611ad09190612a81565b925050819055505050565b60008054906101000a900473ffffffffffffffffffffffffffffffffffffffff1673ffffffffffffffffffffffffffffffffffffffff163273ffffffffffffffffffffffffffffffffffffffff1614611b69576040517f08c379a0000000000000000000000000000000000000000000000000000000008152600401611b60906135d0565b60405180910390fd5b6000805b600580549050811015611c8a57600060058281548110611b9057611b8f613421565b5b9060005260206000200160009054906101000a900473ffffffffffffffffffffffffffffffffffffffff169050600660008273ffffffffffffffffffffffffffffffffffffffff1673ffffffffffffffffffffffffffffffffffffffff16815260200190815260200160002060050160009054906101000a900460ff1615611c7c576064600254600660008473ffffffffffffffffffffffffffffffffffffffff1673ffffffffffffffffffffffffffffffffffffffff16815260200190815260200160002060040154611c649190613450565b611c6e91906134c1565b83611c799190612a81565b92505b508080600101915050611b6d565b50806004541015611cd0576040517f08c379a0000000000000000000000000000000000000000000000000000000008152600401611cc790613662565b60405180910390fd5b60005b600580549050811015611e5a57600060058281548110611cf657611cf5613421565b5b9060005260206000200160009054906101000a900473ffffffffffffffffffffffffffffffffffffffff169050600660008273ffffffffffffffffffffffffffffffffffffffff1673ffffffffffffffffffffffffffffffffffffffff16815260200190815260200160002060050160009054906101000a900460ff1615611e4c5760006064600254600660008573ffffffffffffffffffffffffffffffffffffffff1673ffffffffffffffffffffffffffffffffffffffff16815260200190815260200160002060040154611dcc9190613450565b611dd691906134c1565b905080600660008473ffffffffffffffffffffffffffffffffffffffff1673ffffffffffffffffffffffffffffffffffffffff1681526020019081526020016000206004016000828254611e2a9190612a81565b925050819055508060046000828254611e439190612bf9565b92505081905550505b508080600101915050611cd3565b5050565b60008054906101000a900473ffffffffffffffffffffffffffffffffffffffff1673ffffffffffffffffffffffffffffffffffffffff163273ffffffffffffffffffffffffffffffffffffffff1603611eec576040517f08c379a0000000000000000000000000000000000000000000000000000000008152600401611ee390612b01565b60405180910390fd5b600660003273ffffffffffffffffffffffffffffffffffffffff1673ffffffffffffffffffffffffffffffffffffffff16815260200190815260200160002060050160009054906101000a900460ff16611f7b576040517f08c379a0000000000000000000000000000000000000000000000000000000008152600401611f7290612b6d565b60405180910390fd5b806001541015611fc0576040517f08c379a0000000000000000000000000000000000000000000000000000000008152600401611fb7906136ce565b60405180910390fd5b6002600660003273ffffffffffffffffffffffffffffffffffffffff1673ffffffffffffffffffffffffffffffffffffffff1681526020019081526020016000206004015461200f9190613450565b811115612051576040517f08c379a00000000000000000000000000000000000000000000000000000000081526004016120489061373a565b60405180910390fd5b80600160008282546120639190612bf9565b9250508190555080600660003273ffffffffffffffffffffffffffffffffffffffff1673ffffffffffffffffffffffffffffffffffffffff16815260200190815260200160002060020160008282546120bc9190612a81565b9250508190555060003273ffffffffffffffffffffffffffffffffffffffff16826040516120e990612c5e565b60006040518083038185875af1925050503d8060008114612126576040519150601f19603f3d011682016040523d82523d6000602084013e61212b565b606091505b505090508061216f576040517f08c379a000000000000000000000000000000000000000000000000000000000815260040161216690612cbf565b60405180910390fd5b5050565b60008054906101000a900473ffffffffffffffffffffffffffffffffffffffff1673ffffffffffffffffffffffffffffffffffffffff163273ffffffffffffffffffffffffffffffffffffffff1614612201576040517f08c379a00000000000000000000000000000000000000000000000000000000081526004016121f8906137cc565b60405180910390fd5b81600281905550806003819055505050565b6000606080600080600660003273ffffffffffffffffffffffffffffffffffffffff1673ffffffffffffffffffffffffffffffffffffffff16815260200190815260200160002060050160009054906101000a900460ff166122aa576040517f08c379a00000000000000000000000000000000000000000000000000000000081526004016122a190612b6d565b60405180910390fd5b6000600660003273ffffffffffffffffffffffffffffffffffffffff1673ffffffffffffffffffffffffffffffffffffffff1681526020019081526020016000209050806004015481600001826001018360020154846003015483805461231090612de6565b80601f016020809104026020016040519081016040528092919081815260200182805461233c90612de6565b80156123895780601f1061235e57610100808354040283529160200191612389565b820191906000526020600020905b81548152906001019060200180831161236c57829003601f168201915b5050505050935082805461239c90612de6565b80601f01602080910402602001604051908101604052809291908181526020018280546123c890612de6565b80156124155780601f106123ea57610100808354040283529160200191612415565b820191906000526020600020905b8154815290600101906020018083116123f857829003601f168201915b5050505050925095509550955095509550509091929394565b50805461243a90612de6565b6000825580601f1061244c575061246b565b601f01602090049060005260206000209081019061246a919061246e565b5b50565b5b8082111561248757600081600090555060010161246f565b5090565b6000819050919050565b61249e8161248b565b82525050565b60006020820190506124b96000830184612495565b92915050565b6000604051905090565b600080fd5b600080fd5b6124dc8161248b565b81146124e757600080fd5b50565b6000813590506124f9816124d3565b92915050565b600060208284031215612515576125146124c9565b5b6000612523848285016124ea565b91505092915050565b600080fd5b600080fd5b6000601f19601f8301169050919050565b7f4e487b7100000000000000000000000000000000000000000000000000000000600052604160045260246000fd5b61257f82612536565b810181811067ffffffffffffffff8211171561259e5761259d612547565b5b80604052505050565b60006125b16124bf565b90506125bd8282612576565b919050565b600067ffffffffffffffff8211156125dd576125dc612547565b5b6125e682612536565b9050602081019050919050565b82818337600083830152505050565b6000612615612610846125c2565b6125a7565b90508281526020810184848401111561263157612630612531565b5b61263c8482856125f3565b509392505050565b600082601f8301126126595761265861252c565b5b8135612669848260208601612602565b91505092915050565b60008060408385031215612689576126886124c9565b5b600083013567ffffffffffffffff8111156126a7576126a66124ce565b5b6126b385828601612644565b925050602083013567ffffffffffffffff8111156126d4576126d36124ce565b5b6126e085828601612644565b9150509250929050565b600073ffffffffffffffffffffffffffffffffffffffff82169050919050565b6000612715826126ea565b9050919050565b6127258161270a565b811461273057600080fd5b50565b6000813590506127428161271c565b92915050565b60006020828403121561275e5761275d6124c9565b5b600061276c84828501612733565b91505092915050565b600081519050919050565b600082825260208201905092915050565b60005b838110156127af578082015181840152602081019050612794565b60008484015250505050565b60006127c682612775565b6127d08185612780565b93506127e0818560208601612791565b6127e981612536565b840191505092915050565b60008115159050919050565b612809816127f4565b82525050565b600060c082019050818103600083015261282981896127bb565b9050818103602083015261283d81886127bb565b905061284c6040830187612495565b6128596060830186612495565b6128666080830185612495565b61287360a0830184612800565b979650505050505050565b60006060820190506128936000830186612495565b6128a06020830185612495565b6128ad6040830184612495565b949350505050565b6128be8161270a565b82525050565b60006020820190506128d960008301846128b5565b92915050565b600080604083850312156128f6576128f56124c9565b5b600061290485828601612733565b9250506020612915858286016124ea565b9150509250929050565b60008060408385031215612936576129356124c9565b5b6000612944858286016124ea565b9250506020612955858286016124ea565b9150509250929050565b600060a0820190506129746000830188612495565b818103602083015261298681876127bb565b9050818103604083015261299a81866127bb565b90506129a96060830185612495565b6129b66080830184612495565b9695505050505050565b7f4f6e6c79204f776e65722063616e2063616c6c20746869732066756e6374696f60008201527f6e00000000000000000000000000000000000000000000000000000000000000602082015250565b6000612a1c602183612780565b9150612a27826129c0565b604082019050919050565b60006020820190508181036000830152612a4b81612a0f565b9050919050565b7f4e487b7100000000000000000000000000000000000000000000000000000000600052601160045260246000fd5b6000612a8c8261248b565b9150612a978361248b565b9250828201905080821115612aaf57612aae612a52565b5b92915050565b7f4572726f722c204f776e65722050726f68696269746564000000000000000000600082015250565b6000612aeb601783612780565b9150612af682612ab5565b602082019050919050565b60006020820190508181036000830152612b1a81612ade565b9050919050565b7f4e6f204163636f756e7400000000000000000000000000000000000000000000600082015250565b6000612b57600a83612780565b9150612b6282612b21565b602082019050919050565b60006020820190508181036000830152612b8681612b4a565b9050919050565b7f496e73756666696369656e742046756e64730000000000000000000000000000600082015250565b6000612bc3601283612780565b9150612bce82612b8d565b602082019050919050565b60006020820190508181036000830152612bf281612bb6565b9050919050565b6000612c048261248b565b9150612c0f8361248b565b9250828203905081811115612c2757612c26612a52565b5b92915050565b600081905092915050565b50565b6000612c48600083612c2d565b9150612c5382612c38565b600082019050919050565b6000612c6982612c3b565b9150819050919050565b7f5472616e73666572206661696c65640000000000000000000000000000000000600082015250565b6000612ca9600f83612780565b9150612cb482612c73565b602082019050919050565b60006020820190508181036000830152612cd881612c9c565b9050919050565b7f4c6f77204465706f736974000000000000000000000000000000000000000000600082015250565b6000612d15600b83612780565b9150612d2082612cdf565b602082019050919050565b60006020820190508181036000830152612d4481612d08565b9050919050565b7f4163636f756e7420616c72656164792065786973747300000000000000000000600082015250565b6000612d81601683612780565b9150612d8c82612d4b565b602082019050919050565b60006020820190508181036000830152612db081612d74565b9050919050565b7f4e487b7100000000000000000000000000000000000000000000000000000000600052602260045260246000fd5b60006002820490506001821680612dfe57607f821691505b602082108103612e1157612e10612db7565b5b50919050565b60008190508160005260206000209050919050565b60006020601f8301049050919050565b600082821b905092915050565b600060088302612e797fffffffffffffffffffffffffffffffffffffffffffffffffffffffffffffffff82612e3c565b612e838683612e3c565b95508019841693508086168417925050509392505050565b6000819050919050565b6000612ec0612ebb612eb68461248b565b612e9b565b61248b565b9050919050565b6000819050919050565b612eda83612ea5565b612eee612ee682612ec7565b848454612e49565b825550505050565b600090565b612f03612ef6565b612f0e818484612ed1565b505050565b5b81811015612f3257612f27600082612efb565b600181019050612f14565b5050565b601f821115612f7757612f4881612e17565b612f5184612e2c565b81016020851015612f60578190505b612f74612f6c85612e2c565b830182612f13565b50505b505050565b600082821c905092915050565b6000612f9a60001984600802612f7c565b1980831691505092915050565b6000612fb38383612f89565b9150826002028217905092915050565b612fcc82612775565b67ffffffffffffffff811115612fe557612fe4612547565b5b612fef8254612de6565b612ffa828285612f36565b600060209050601f83116001811461302d576000841561301b578287015190505b6130258582612fa7565b86555061308d565b601f19841661303b86612e17565b60005b828110156130635784890151825560018201915060208501945060208101905061303e565b86831015613080578489015161307c601f891682612f89565b8355505b6001600288020188555050505b505050505050565b7f4572726f722c204f776e657220646f6573206e6f74206f776e20616e2061636360008201527f6f756e7400000000000000000000000000000000000000000000000000000000602082015250565b60006130f1602483612780565b91506130fc82613095565b604082019050919050565b60006020820190508181036000830152613120816130e4565b9050919050565b7f4e6f204163636f756e7420457869737473000000000000000000000000000000600082015250565b600061315d601183612780565b915061316882613127565b602082019050919050565b6000602082019050818103600083015261318c81613150565b9050919050565b7f447565732072656d61696e696e672c2063616e6e6f7420636c6f73652061636360008201527f6f756e74206265666f72652072657061796d656e740000000000000000000000602082015250565b60006131ef603583612780565b91506131fa82613193565b604082019050919050565b6000602082019050818103600083015261321e816131e2565b9050919050565b7f4f75747374616e64696e672062616c616e63652c20776974686472617720697460008201527f20746f20636c6f736520796f7572206163636f756e7400000000000000000000602082015250565b6000613281603683612780565b915061328c82613225565b604082019050919050565b600060208201905081810360008301526132b081613274565b9050919050565b7f4e6f204c6f616e00000000000000000000000000000000000000000000000000600082015250565b60006132ed600783612780565b91506132f8826132b7565b602082019050919050565b6000602082019050818103600083015261331c816132e0565b9050919050565b7f4f77656420416d6f756e74204578636565646564000000000000000000000000600082015250565b6000613359601483612780565b915061336482613323565b602082019050919050565b600060208201905081810360008301526133888161334c565b9050919050565b7f4f6e6c7920746865206f776e65722063616e2061646420696e7465726573742060008201527f746f206c6f616e73000000000000000000000000000000000000000000000000602082015250565b60006133eb602883612780565b91506133f68261338f565b604082019050919050565b6000602082019050818103600083015261341a816133de565b9050919050565b7f4e487b7100000000000000000000000000000000000000000000000000000000600052603260045260246000fd5b600061345b8261248b565b91506134668361248b565b92508282026134748161248b565b9150828204841483151761348b5761348a612a52565b5b5092915050565b7f4e487b7100000000000000000000000000000000000000000000000000000000600052601260045260246000fd5b60006134cc8261248b565b91506134d78361248b565b9250826134e7576134e6613492565b5b828204905092915050565b7f526563697069656e74206163636f756e7420646f6573206e6f74206578697374600082015250565b6000613528602083612780565b9150613533826134f2565b602082019050919050565b600060208201905081810360008301526135578161351b565b9050919050565b7f4f6e6c7920746865206f776e65722063616e2061646420696e7465726573742060008201527f746f206465706f73697473000000000000000000000000000000000000000000602082015250565b60006135ba602b83612780565b91506135c58261355e565b604082019050919050565b600060208201905081810360008301526135e9816135ad565b9050919050565b7f4e6f7420656e6f756768206f7065726174696f6e616c2066756e647320746f2060008201527f70617920696e7465726573740000000000000000000000000000000000000000602082015250565b600061364c602c83612780565b9150613657826135f0565b604082019050919050565b6000602082019050818103600083015261367b8161363f565b9050919050565b7f496e73756666696369656e74204c6f616e2046756e6473000000000000000000600082015250565b60006136b8601783612780565b91506136c382613682565b602082019050919050565b600060208201905081810360008301526136e7816136ab565b9050919050565b7f4c6f616e204c696d697420457863656564656400000000000000000000000000600082015250565b6000613724601383612780565b915061372f826136ee565b602082019050919050565b6000602082019050818103600083015261375381613717565b9050919050565b7f4f6e6c7920746865206f776e65722063616e2073657420696e7465726573742060008201527f7261746573000000000000000000000000000000000000000000000000000000602082015250565b60006137b6602583612780565b91506137c18261375a565b604082019050919050565b600060208201905081810360008301526137e5816137a9565b905091905056fea264697066735822122041fd41fe0cecd5a94d8a78c2f75574720e491981b814df65310709abccfe8d9c64736f6c634300081c0033",
  "linkReferences": {},
  "deployedLinkReferences": {}
}